{"abi":[{"type":"constructor","inputs":[],"stateMutability":"nonpayable"},{"type":"function","name":"MONTHLY_DURATION","inputs":[],"outputs":[{"name":"","type":"uint256","internalType":"uint256"}],"stateMutability":"view"},{"type":"function","name":"WEEKLY_DURATION","inputs":[],"outputs":[{"name":"","type":"uint256","internalType":"uint256"}],"stateMutability":"view"},{"type":"function","name":"createProposal","inputs":[{"name":"_description","type":"string","internalType":"string"},{"name":"_proposalType","type":"uint8","internalType":"enum DaoGovernance.ProposalType"},{"name":"_cycle","type":"uint8","internalType":"enum DaoGovernance.VotingCycle"}],"outputs":[{"name":"","type":"uint256","internalType":"uint256"}],"stateMutability":"nonpayable"},{"type":"function","name":"executeProposal","inputs":[{"name":"_proposalId","type":"uint256","internalType":"uint256"}],"outputs":[],"stateMutability":"nonpayable"},{"type":"function","name":"hasVoted","inputs":[{"name":"","type":"uint256","internalType":"uint256"},{"name":"","type":"address","internalType":"address"}],"outputs":[{"name":"","type":"bool","internalType":"bool"}],"stateMutability":"view"},{"type":"function","name":"owner","inputs":[],"outputs":[{"name":"","type":"address","internalType":"address"}],"stateMutability":"view"},{"type":"function","name":"proposalCount","inputs":[],"outputs":[{"name":"","type":"uint256","internalType":"uint256"}],"stateMutability":"view"},{"type":"function","name":"proposals","inputs":[{"name":"","type":"uint256","internalType":"uint256"}],"outputs":[{"name":"id","type":"uint256","internalType":"uint256"},{"name":"description","type":"string","internalType":"string"},{"name":"proposalType","type":"uint8","internalType":"enum DaoGovernance.ProposalType"},{"name":"cycle","type":"uint8","internalType":"enum DaoGovernance.VotingCycle"},{"name":"startTime","type":"uint256","internalType":"uint256"},{"name":"endTime","type":"uint256","internalType":"uint256"},{"name":"yesVotes","type":"uint256","internalType":"uint256"},{"name":"noVotes","type":"uint256","internalType":"uint256"},{"name":"executed","type":"bool","internalType":"bool"}],"stateMutability":"view"},{"type":"function","name":"renounceOwnership","inputs":[],"outputs":[],"stateMutability":"nonpayable"},{"type":"function","name":"transferOwnership","inputs":[{"name":"newOwner","type":"address","internalType":"address"}],"outputs":[],"stateMutability":"nonpayable"},{"type":"function","name":"vote","inputs":[{"name":"_proposalId","type":"uint256","internalType":"uint256"},{"name":"support","type":"bool","internalType":"bool"}],"outputs":[],"stateMutability":"nonpayable"},{"type":"event","name":"OwnershipTransferred","inputs":[{"name":"previousOwner","type":"address","indexed":true,"internalType":"address"},{"name":"newOwner","type":"address","indexed":true,"internalType":"address"}],"anonymous":false},{"type":"event","name":"ProposalCreated","inputs":[{"name":"id","type":"uint256","indexed":true,"internalType":"uint256"},{"name":"description","type":"string","indexed":false,"internalType":"string"},{"name":"proposalType","type":"uint8","indexed":false,"internalType":"enum DaoGovernance.ProposalType"},{"name":"cycle","type":"uint8","indexed":false,"internalType":"enum DaoGovernance.VotingCycle"},{"name":"startTime","type":"uint256","indexed":false,"internalType":"uint256"},{"name":"endTime","type":"uint256","indexed":false,"internalType":"uint256"}],"anonymous":false},{"type":"event","name":"ProposalExecuted","inputs":[{"name":"proposalId","type":"uint256","indexed":true,"internalType":"uint256"},{"name":"passed","type":"bool","indexed":false,"internalType":"bool"}],"anonymous":false},{"type":"event","name":"VoteCast","inputs":[{"name":"proposalId","type":"uint256","indexed":true,"internalType":"uint256"},{"name":"voter","type":"address","indexed":true,"internalType":"address"},{"name":"support","type":"bool","indexed":false,"internalType":"bool"}],"anonymous":false},{"type":"error","name":"OwnableInvalidOwner","inputs":[{"name":"owner","type":"address","internalType":"address"}]},{"type":"error","name":"OwnableUnauthorizedAccount","inputs":[{"name":"account","type":"address","internalType":"address"}]}],"bytecode":{"object":"0x608060405234801561000f575f5ffd5b50335f73ffffffffffffffffffffffffffffffffffffffff168173ffffffffffffffffffffffffffffffffffffffff1603610081575f6040517f1e4fbdf70000000000000000000000000000000000000000000000000000000081526004016100789190610196565b60405180910390fd5b6100908161009660201b60201c565b506101af565b5f5f5f9054906101000a900473ffffffffffffffffffffffffffffffffffffffff169050815f5f6101000a81548173ffffffffffffffffffffffffffffffffffffffff021916908373ffffffffffffffffffffffffffffffffffffffff1602179055508173ffffffffffffffffffffffffffffffffffffffff168173ffffffffffffffffffffffffffffffffffffffff167f8be0079c531659141344cd1fd0a4f28419497f9722a3daafe3b4186f6b6457e060405160405180910390a35050565b5f73ffffffffffffffffffffffffffffffffffffffff82169050919050565b5f61018082610157565b9050919050565b61019081610176565b82525050565b5f6020820190506101a95f830184610187565b92915050565b611666806101bc5f395ff3fe608060405234801561000f575f5ffd5b50600436106100a7575f3560e01c80638da5cb5b1161006f5780638da5cb5b14610169578063a07312c214610187578063c9d27afe146101a5578063da35c664146101c1578063da823010146101df578063f2fde38b146101fd576100a7565b8063013cf08b146100ab57806309532e8a146100e35780630d61b51914610113578063438596321461012f578063715018a61461015f575b5f5ffd5b6100c560048036038101906100c09190610aeb565b610219565b6040516100da99989796959493929190610c68565b60405180910390f35b6100fd60048036038101906100f89190610e6c565b61030e565b60405161010a9190610ed8565b60405180910390f35b61012d60048036038101906101289190610aeb565b610511565b005b61014960048036038101906101449190610f4b565b61062b565b6040516101569190610f89565b60405180910390f35b610167610655565b005b610171610668565b60405161017e9190610fb1565b60405180910390f35b61018f61068f565b60405161019c9190610ed8565b60405180910390f35b6101bf60048036038101906101ba9190610ff4565b610696565b005b6101c96108c7565b6040516101d69190610ed8565b60405180910390f35b6101e76108cd565b6040516101f49190610ed8565b60405180910390f35b61021760048036038101906102129190611032565b6108d4565b005b6002602052805f5260405f205f91509050805f01549080600101805461023e9061108a565b80601f016020809104026020016040519081016040528092919081815260200182805461026a9061108a565b80156102b55780601f1061028c576101008083540402835291602001916102b5565b820191905f5260205f20905b81548152906001019060200180831161029857829003601f168201915b505050505090806002015f9054906101000a900460ff16908060020160019054906101000a900460ff1690806003015490806004015490806005015490806006015490806007015f9054906101000a900460ff16905089565b5f610317610958565b5f4290505f5f600181111561032f5761032e610b95565b5b84600181111561034257610341610b95565b5b146103505762015180610355565b6203f4805b90505f818361036491906110e7565b905060015f8154809291906103789061111a565b919050555060405180610120016040528060015481526020018881526020018760018111156103aa576103a9610b95565b5b81526020018660018111156103c2576103c1610b95565b5b81526020018481526020018281526020015f81526020015f81526020015f151581525060025f60015481526020019081526020015f205f820151815f015560208201518160010190816104159190611301565b506040820151816002015f6101000a81548160ff021916908360018111156104405761043f610b95565b5b021790555060608201518160020160016101000a81548160ff021916908360018111156104705761046f610b95565b5b02179055506080820151816003015560a0820151816004015560c0820151816005015560e08201518160060155610100820151816007015f6101000a81548160ff0219169083151502179055509050506001547fbdd109b703f58849d2bcb123738e7ff6ee147023648e2356ad96101cd5311d5588888887866040516104fa9594939291906113d0565b60405180910390a260015493505050509392505050565b610519610958565b5f60025f8381526020019081526020015f20905080600401544211610573576040517f08c379a000000000000000000000000000000000000000000000000000000000815260040161056a90611472565b60405180910390fd5b806007015f9054906101000a900460ff16156105c4576040517f08c379a00000000000000000000000000000000000000000000000000000000081526004016105bb906114da565b60405180910390fd5b5f816006015482600501541190506001826007015f6101000a81548160ff021916908315150217905550827f948f4a9cd986f1118c3fbd459f7a22b23c0693e1ca3ef06a6a8be5aa7d39cc038260405161061e9190610f89565b60405180910390a2505050565b6003602052815f5260405f20602052805f5260405f205f915091509054906101000a900460ff1681565b61065d610958565b6106665f6109df565b565b5f5f5f9054906101000a900473ffffffffffffffffffffffffffffffffffffffff16905090565b6201518081565b5f60025f8481526020019081526020015f20905080600301544210156106f1576040517f08c379a00000000000000000000000000000000000000000000000000000000081526004016106e890611542565b60405180910390fd5b8060040154421115610738576040517f08c379a000000000000000000000000000000000000000000000000000000000815260040161072f906115aa565b60405180910390fd5b60035f8481526020019081526020015f205f3373ffffffffffffffffffffffffffffffffffffffff1673ffffffffffffffffffffffffffffffffffffffff1681526020019081526020015f205f9054906101000a900460ff16156107d1576040517f08c379a00000000000000000000000000000000000000000000000000000000081526004016107c890611612565b60405180910390fd5b600160035f8581526020019081526020015f205f3373ffffffffffffffffffffffffffffffffffffffff1673ffffffffffffffffffffffffffffffffffffffff1681526020019081526020015f205f6101000a81548160ff021916908315150217905550811561085957806005015f81548092919061084f9061111a565b9190505550610873565b806006015f81548092919061086d9061111a565b91905055505b3373ffffffffffffffffffffffffffffffffffffffff16837fe71fcdac32df1877c1700e7bda2a03157e20993363a28fc35ac495cefc76e4d4846040516108ba9190610f89565b60405180910390a3505050565b60015481565b6203f48081565b6108dc610958565b5f73ffffffffffffffffffffffffffffffffffffffff168173ffffffffffffffffffffffffffffffffffffffff160361094c575f6040517f1e4fbdf70000000000000000000000000000000000000000000000000000000081526004016109439190610fb1565b60405180910390fd5b610955816109df565b50565b610960610aa0565b73ffffffffffffffffffffffffffffffffffffffff1661097e610668565b73ffffffffffffffffffffffffffffffffffffffff16146109dd576109a1610aa0565b6040517f118cdaa70000000000000000000000000000000000000000000000000000000081526004016109d49190610fb1565b60405180910390fd5b565b5f5f5f9054906101000a900473ffffffffffffffffffffffffffffffffffffffff169050815f5f6101000a81548173ffffffffffffffffffffffffffffffffffffffff021916908373ffffffffffffffffffffffffffffffffffffffff1602179055508173ffffffffffffffffffffffffffffffffffffffff168173ffffffffffffffffffffffffffffffffffffffff167f8be0079c531659141344cd1fd0a4f28419497f9722a3daafe3b4186f6b6457e060405160405180910390a35050565b5f33905090565b5f604051905090565b5f5ffd5b5f5ffd5b5f819050919050565b610aca81610ab8565b8114610ad4575f5ffd5b50565b5f81359050610ae581610ac1565b92915050565b5f60208284031215610b0057610aff610ab0565b5b5f610b0d84828501610ad7565b91505092915050565b610b1f81610ab8565b82525050565b5f81519050919050565b5f82825260208201905092915050565b8281835e5f83830152505050565b5f601f19601f8301169050919050565b5f610b6782610b25565b610b718185610b2f565b9350610b81818560208601610b3f565b610b8a81610b4d565b840191505092915050565b7f4e487b71000000000000000000000000000000000000000000000000000000005f52602160045260245ffd5b60028110610bd357610bd2610b95565b5b50565b5f819050610be382610bc2565b919050565b5f610bf282610bd6565b9050919050565b610c0281610be8565b82525050565b60028110610c1957610c18610b95565b5b50565b5f819050610c2982610c08565b919050565b5f610c3882610c1c565b9050919050565b610c4881610c2e565b82525050565b5f8115159050919050565b610c6281610c4e565b82525050565b5f61012082019050610c7c5f83018c610b16565b8181036020830152610c8e818b610b5d565b9050610c9d604083018a610bf9565b610caa6060830189610c3f565b610cb76080830188610b16565b610cc460a0830187610b16565b610cd160c0830186610b16565b610cde60e0830185610b16565b610cec610100830184610c59565b9a9950505050505050505050565b5f5ffd5b5f5ffd5b7f4e487b71000000000000000000000000000000000000000000000000000000005f52604160045260245ffd5b610d3882610b4d565b810181811067ffffffffffffffff82111715610d5757610d56610d02565b5b80604052505050565b5f610d69610aa7565b9050610d758282610d2f565b919050565b5f67ffffffffffffffff821115610d9457610d93610d02565b5b610d9d82610b4d565b9050602081019050919050565b828183375f83830152505050565b5f610dca610dc584610d7a565b610d60565b905082815260208101848484011115610de657610de5610cfe565b5b610df1848285610daa565b509392505050565b5f82601f830112610e0d57610e0c610cfa565b5b8135610e1d848260208601610db8565b91505092915050565b60028110610e32575f5ffd5b50565b5f81359050610e4381610e26565b92915050565b60028110610e55575f5ffd5b50565b5f81359050610e6681610e49565b92915050565b5f5f5f60608486031215610e8357610e82610ab0565b5b5f84013567ffffffffffffffff811115610ea057610e9f610ab4565b5b610eac86828701610df9565b9350506020610ebd86828701610e35565b9250506040610ece86828701610e58565b9150509250925092565b5f602082019050610eeb5f830184610b16565b92915050565b5f73ffffffffffffffffffffffffffffffffffffffff82169050919050565b5f610f1a82610ef1565b9050919050565b610f2a81610f10565b8114610f34575f5ffd5b50565b5f81359050610f4581610f21565b92915050565b5f5f60408385031215610f6157610f60610ab0565b5b5f610f6e85828601610ad7565b9250506020610f7f85828601610f37565b9150509250929050565b5f602082019050610f9c5f830184610c59565b92915050565b610fab81610f10565b82525050565b5f602082019050610fc45f830184610fa2565b92915050565b610fd381610c4e565b8114610fdd575f5ffd5b50565b5f81359050610fee81610fca565b92915050565b5f5f6040838503121561100a57611009610ab0565b5b5f61101785828601610ad7565b925050602061102885828601610fe0565b9150509250929050565b5f6020828403121561104757611046610ab0565b5b5f61105484828501610f37565b91505092915050565b7f4e487b71000000000000000000000000000000000000000000000000000000005f52602260045260245ffd5b5f60028204905060018216806110a157607f821691505b6020821081036110b4576110b361105d565b5b50919050565b7f4e487b71000000000000000000000000000000000000000000000000000000005f52601160045260245ffd5b5f6110f182610ab8565b91506110fc83610ab8565b9250828201905080821115611114576111136110ba565b5b92915050565b5f61112482610ab8565b91507fffffffffffffffffffffffffffffffffffffffffffffffffffffffffffffffff8203611156576111556110ba565b5b600182019050919050565b5f819050815f5260205f209050919050565b5f6020601f8301049050919050565b5f82821b905092915050565b5f600883026111bd7fffffffffffffffffffffffffffffffffffffffffffffffffffffffffffffffff82611182565b6111c78683611182565b95508019841693508086168417925050509392505050565b5f819050919050565b5f6112026111fd6111f884610ab8565b6111df565b610ab8565b9050919050565b5f819050919050565b61121b836111e8565b61122f61122782611209565b84845461118e565b825550505050565b5f5f905090565b611246611237565b611251818484611212565b505050565b5b81811015611274576112695f8261123e565b600181019050611257565b5050565b601f8211156112b95761128a81611161565b61129384611173565b810160208510156112a2578190505b6112b66112ae85611173565b830182611256565b50505b505050565b5f82821c905092915050565b5f6112d95f19846008026112be565b1980831691505092915050565b5f6112f183836112ca565b9150826002028217905092915050565b61130a82610b25565b67ffffffffffffffff81111561132357611322610d02565b5b61132d825461108a565b611338828285611278565b5f60209050601f831160018114611369575f8415611357578287015190505b61136185826112e6565b8655506113c8565b601f19841661137786611161565b5f5b8281101561139e57848901518255600182019150602085019450602081019050611379565b868310156113bb57848901516113b7601f8916826112ca565b8355505b6001600288020188555050505b505050505050565b5f60a0820190508181035f8301526113e88188610b5d565b90506113f76020830187610bf9565b6114046040830186610c3f565b6114116060830185610b16565b61141e6080830184610b16565b9695505050505050565b7f566f74696e6720706572696f64206e6f7420656e6465640000000000000000005f82015250565b5f61145c601783610b2f565b915061146782611428565b602082019050919050565b5f6020820190508181035f83015261148981611450565b9050919050565b7f416c7265616479206578656375746564000000000000000000000000000000005f82015250565b5f6114c4601083610b2f565b91506114cf82611490565b602082019050919050565b5f6020820190508181035f8301526114f1816114b8565b9050919050565b7f566f74696e67206e6f74207374617274656400000000000000000000000000005f82015250565b5f61152c601283610b2f565b9150611537826114f8565b602082019050919050565b5f6020820190508181035f83015261155981611520565b9050919050565b7f566f74696e6720656e64656400000000000000000000000000000000000000005f82015250565b5f611594600c83610b2f565b915061159f82611560565b602082019050919050565b5f6020820190508181035f8301526115c181611588565b9050919050565b7f416c726561647920766f746564000000000000000000000000000000000000005f82015250565b5f6115fc600d83610b2f565b9150611607826115c8565b602082019050919050565b5f6020820190508181035f830152611629816115f0565b905091905056fea2646970667358221220fd88d9e685a62a42e1af1d30f5c20d0df60f865b408722609a74bb473888d09d64736f6c634300081c0033","linkReferences":{}},"methodIdentifiers":{"MONTHLY_DURATION()":"da823010","WEEKLY_DURATION()":"a07312c2","createProposal(string,uint8,uint8)":"09532e8a","executeProposal(uint256)":"0d61b519","hasVoted(uint256,address)":"43859632","owner()":"8da5cb5b","proposalCount()":"da35c664","proposals(uint256)":"013cf08b","renounceOwnership()":"715018a6","transferOwnership(address)":"f2fde38b","vote(uint256,bool)":"c9d27afe"},"id":1}